:1000000080314C2B00000C00D0327232E939F432CE
:100010000001CE327710D232E3377232211DA5199A
:10002000CC3A252675000C00D03A6E3AF530E33410
:100030006F37BA123326F512CC3A00010C000C00CF
:100040000C005039E539E937EE30A0200001D030FE
:10005000F230A031EF366537FA3072000C005039BB
:10006000E5396537F430E43720386F393A00CA3261
:10007000F33A7310C6327210C834F2306D000C00BF
:10008000C234A13420344C344934533454344F34C2
:100090002034213400340C000C000C000C000C0047
:1000A0002030850062308400000803196528013083
:1000B000F800F701F70B5A28F80B59284A30F700D7
:1000C000F70B60286328800B572808002100391897
:1000D0006D2822000F106F28210022000F1421002C
:1000E0000F10B918772822008F10792821002200DC
:1000F0008F1421008F103919812822000F118328B5
:10010000210022000F1521000F11B9198B282200A0
:100110008F118D28210022008F1521008F110000E2
:1001200022000F1721000F13952822000F13210022
:100130000F13200008002100BA010F140030200026
:100140000F1801302100BA048F14003020008F18DE
:100150000130F7000310F70D77082100BA040F15DE
:10016000003020000F190130F700F70DF70DFC30BB
:10017000F70577082100BA048F15003020008F1989
:100180000130F700F70DF70DF70DF830F705770898
:100190002100BA043A08F8002000080021000F13DB
:1001A0000F128F1222000F1221000F120F148F1442
:1001B0000F158F1522008F1621008F1200002200CC
:1001C0000F1721000F13000020009B20780821004A
:1001D000B90022000F1321000F13000022000F1797
:1001E00021000F13000020009B2078082100B80098
:1001F00022000F1321000F130F108F100F118F11FA
:10020000390EF700F030F70577083804F800780861
:10021000B800B81BD628B608031D122922000F12F9
:100220001429210022000F1621000F1200002200C5
:100230008F1221008F12000022000F1321000F13D4
:10024000370EB8000F30B8053808B9002000662016
:10025000210037080F39B800B900200066200800D7
:1002600028302100A3000C30A4000130A500063086
:10027000A60022000F1321000F1322000F122100ED
:100280000F1222008F1221008F120F108F100F11EA
:100290008F110F130F128F120F30B2002000502059
:1002A00001302100A2002208033C031C6329033013
:1002B000B9002000662005302100B2002000502047
:1002C0002100A20A53290230B9002000662005301F
:1002D0002100B200200050202100A2012208033C8E
:1002E000031C832953302207840020308500031823
:1002F000850A0008A700B6012708B7002000CE2015
:100300002100A20A6E2980312000CD2B2100A20DF0
:10031000A20DA20DF830A2053830A20522084038FF
:10032000A600B6012608B7002000CE202100A501B6
:100330002508073C031CB0292408FA002308A30A57
:100340000319A40A84007A0885000008A600013079
:10035000B6002608B7002000CE202100A50A982963
:10036000200008002100330BB629B9294030B40021
:10037000BA29B40101303202B40734088038B5001C
:10038000B6013508B7002000CE2008002100310852
:10039000073A20000319D6290B3A0319DD29063A3A
:1003A0000319E929023A0319F129F829013021003A
:1003B000B200B3002000B221FF292100B6010130B4
:1003C000B7002000CE2002302100B20020005020D3
:1003D000FF2901302100B2000230B3002000B22119
:1003E000FF292100B6011030B7002000CE20FF29E0
:1003F00001302100B6003108B7002000CE200800EF
:100400000B088B1323009517151400000000891B9F
:100410008B1713087F3903194C2A2100A5002300EC
:1004200011082100A600230012082100A7002508BA
:10043000B1002000C62121002608230091002100E0
:100440002708230092000B088B1395171514000042
:100450000000891B8B17130D140D7F3903194C2ACB
:100460002100A500230011082100A6002300120886
:100470002100A7002508B1002000C6212100260880
:10048000230091002100270823009200910A0319FC
:10049000920A2000002A2300200008008008031987
:1004A000622A05082100A3000408A2000008B10088
:1004B0002000C62121002308850022088400013184
:1004C00020004E2A8031792C0B088B1323009517BE
:1004D000151400000000891B8B170318972A1308B6
:1004E0007F392100A500230011082100A600230068
:1004F00012082100A7002508B1002000C621210014
:1005000026082300910021002708230092000B08F1
:100510008B139517151400000000891B8B17210001
:10052000A40B932A952A2300972ABA2A2300130D95
:10053000140D7F392100A500230011082100A60019
:10054000230012082100A7002508B1002000C621C1
:100550002100260823009100210027082300920093
:10056000910A0319920A03102100A40BB82ABA2A8F
:100570002000642A2000080005082100B0000408BB
:10058000AF00250EF038AB00AB07E23EAC00323EC8
:10059000AE0025080F39AC07AC07AE07E93EAD0049
:1005A000AD07AD07240E0F39AD07AE07AD0DAE0D8B
:1005B000AE09AE0D24080F39AE07AB0D0730AA0007
:1005C0000A30AE07AD03031CE12AAD07AC03031CE0
:1005D000E52AAC07AB03031CE92AAB07AA03031CFB
:1005E000ED2A203085005A30840007302F052F1364
:1005F00084070030853D04085E3C031D032B05087D
:10060000203C03192F170008F700031D0F2B2F1B89
:100610000F2B2F1A202BAF190F2B2030122BAF15B9
:100620002F123030F7070508A5000408A40077084A
:10063000B1002000C621210025088500240884007F
:1006400001312F1FFB2A20000800F801F901F701F2
:10065000FA0121002A08031D302B290803194A2B0F
:100660001030AB000310A70DA80DF70DFA0D2A08E6
:100670007A02031D3D2B29087702031C462B29080B
:10068000F702031CFA032A08FA020314F80DF90D05
:10069000AB0B322B20000800E001DF01E201E10199
:1006A000E401E301E601E501EB01EC01ED01EE01FE
:1006B0002100A101A0012F0091019201980199014F
:1006C0009A0123008C018D018F019001220092017B
:1006D000910194019301AD2B023400342034003495
:1006E00000343834003426340734173416341F34B9
:1006F0000E340A340F3400340734173416341F34E0
:100700000E340234033400340734173416341F34E3
:100710000E3408340C3400340634163416341E34C7
:100720001E34063406341F34003400340C340D34C7
:100730000F340C340C341F341D341C34193402347F
:1007400014340034003400341C341D3418340234A2
:1007500008340034003400340034033085006C3039
:10076000840085171200F700003A0319C72B120006
:10077000F800F81BBF2B0F39870012008600781B8A
:100780001200781F12001E00F70BC12BB22B2100A4
:100790008F1322008F17200030292100A201203062
:1007A000A4000630A3002000862101302100A20011
:1007B0002030A4000E30A30020008621023021004A
:1007C000A2002030A4001630A300200086210330B0
:1007D0002100A2002030A4001E30A30020008621AA
:1007E00004302100A2002030A4002630A300200005
:1007F000862105302100A2002030A4002E30A30065
:100800002000862106302100A2002030A4003630CE
:10081000A30020008621003021008D008D012200E0
:100820008D0121000D1420000D1C342C01302100FD
:10083000B200B3002000B22121302300910000302B
:1008400092002000002201302100B2000230B300EB
:100850002000B221273023009100003092002000B8
:1008600000222200112C200064302100B200200060
:1008700050202E30230091000030920020000022F2
:1008800001302100B200B3002000B2212F3023003C
:100890009100003092002000002201302100B200BF
:1008A0000230B3002000B221373023009100003025
:1008B00092002000002202302100A200FA30B20093
:1008C000200050202100A20B5E2C3F30230091001D
:1008D000003092002000002204302100B2000130DC
:1008E000B3002000B22140308501840080308500B3
:1008F0004E2A64302100B200200050204B302300EB
:100900009100003092002000002221008D11220071
:100910008D1505302100B2002000502021008D11DE
:1009200022008D1105302100B20020005020083037
:100930002100B2000130B3002000B221203021009C
:10094000B1002000C62133302100B1002000C621B3
:1009500020302100B1002000C62164302100B20007
:10096000200050204C3023009100003092002000E5
:10097000002221008D1122008D1505302100B200CA
:100980002000502021008D1122008D110530210002
:10099000B2002000502008302100B2000130B30026
:1009A0002000B22120302100B1002000C6213230C9
:1009B0002100B1002000C62120302100B10020001C
:1009C000C62164302100B200200050204D302300A9
:1009D0009100003092002000002221008D112200A1
:1009E0008D1505302100B2002000502021008D110E
:1009F00022008D1105302100B20020005020083067
:100A00002100B2000130B3002000B22120302100CB
:100A1000B1002000C62131302100B1002000C621E4
:100A200020302100B1002000C62164302100B20036
:100A3000200050204E302300910000309200200012
:100A4000002221008D1122008D1532302100B200CC
:100A50002000502021008D1122008D113230210004
:100A6000B20020005020883100288031332D6430BE
:100A70002100B200200050204F30230091000030B0
:080A8000920020000022630037
:10100000E8011030E700E81B0E2FE808031D0C284C
:101010006708003C03180E2F6708023C031D532984
:10102000E808031D532921008D1122008D1505307C
:101030002100B200803120005020883121008D1124
:1010400022008D1105302100B20080312000502097
:10105000883121008D1122008D1505302100B2004C
:10106000803120005020883121008D1122008D1107
:1010700005302100B200803120005020883121004D
:101080008D1122008D1505302100B2008031200025
:101090005020883121008D1122008D110530210052
:1010A000B200803120005020883121008D112200B3
:1010B0008D1505302100B20080312000502088318C
:1010C00021008D1122008D112000E8010230E7007F
:1010D0000330230091000030920080312000002274
:1010E000883105302100B2000130B300803120008A
:1010F000B221883104302300910000309200803109
:1011000020000022883164086002031CEF28031DC0
:101110008D285F0863020318EF2866086202031C2B
:10112000EF28031D9728610865020318EF282100A6
:101130000D1420000D1CE22801302100B200023005
:10114000B30080312000B2218831093023009100A2
:101150000030920003100C302100A40080312000E8
:10116000642288310230840062082100A50020003A
:1011700061082100A40080312000BC228831103099
:10118000840060082100A50020005F082100A40061
:1011900080312000BC2288316008E4005F08E30051
:1011A0006208E6006108E50002302100A400FA3080
:1011B000B20080312000502088312100A40BD728B4
:1011C00098282000133023009100003092008031D5
:1011D000200000228831E001DF01E201E101600826
:1011E0006402031C5329031DF9285F086302031CD2
:1011F000532962086602031C5329031D0329610851
:101200006502031C532921000D1420000D1C4629E2
:1012100001302100B2000230B30080312000B22141
:1012200088311430230091000030920003100B30FD
:101230002100A40080312000642288310230840023
:1012400062082100A500200061082100A40080316F
:101250002000BC2288311030840060082100A500E5
:1012600020005F082100A40080312000BC228831CA
:1012700002302100A400FA30B2008031200050205A
:1012800088312100A40B3B29042920001E302300B3
:101290009100003092008031200000228831E0016E
:1012A000DF01E201E101E208031D60296108013C60
:1012B000031C60292830EC001430ED000A30EE00E9
:1012C000E208031D74296108043C031C7429E20828
:1012D000031D6E296108023C031874291E30EC00BE
:1012E0000F30ED000830EE00E208031D8829610888
:1012F000063C031C8829E208031D82296108053C7D
:10130000031888291430EC000A30ED000530EE0097
:10131000E208031D9C296108093C031C9C29E20882
:10132000031D96296108073C03189C290A30EC002C
:101330000530ED000330EE00E208031DA32961082B
:101340000A3C0318A9290630EC000330ED000230F6
:10135000EE006708103C031D382AE808031D382AF0
:1013600025082100A700200024082100A600200055
:1013700023082100A500200022082100A4004130FC
:10138000AB00C630AA004E30A9006D30A800203056
:10139000B300AF01B001B101B2012708FA0026087D
:1013A000F9002508F8002408F7000310771CE62947
:1013B0002808AF0729080318290FB0072A080318BF
:1013C0002A0FB1072B0803182B0FB207B20CB10C70
:1013D000B00CAF0CFA0CF90CF80CF70CB30BD529C8
:1013E0007A08A7007908A6007808A5007708A40065
:1013F000393024072000A20030302100253D200094
:10140000A30000302100263D2000A4000030210070
:10141000273D2000A5002408F7002508F800F90161
:10142000FA0125082100A6007708A5002608A800D3
:101430002508A7007F30AA00FF30A90080312000D6
:10144000252388317708F8007A08F9007908210007
:10145000A5007808A4002508A8002408A700AA0170
:101460000730A90080312000252388317708DE006D
:10147000DE08031D6A2A67082100B2000230B300AB
:1014800080312000B221883104302100B100803148
:101490002000C62188316E082100B2008031200072
:1014A00050208831013067072100A400003020005F
:1014B000683D2100A5002408B2000230B30080314D
:1014C0002000B221883120302100B100803120007D
:1014D000C62188315E0B9B2A67082100B2000230CA
:1014E000B30080312000B221883103302100B100E7
:1014F00080312000C62188316E082100B200803181
:10150000200050208831013067072100A4000030FE
:101510002000683D2100A5002408B2000230B3007D
:1015200080312000B221883120302100B10080318B
:101530002000C62188315E08023C031DD52A6708B9
:101540002100B2000230B30080312000B221883186
:1015500004302100B10080312000C62188310330E1
:101560002100B10080312000C62188316E082100A1
:10157000B2008031200050208831023067072100FE
:10158000A40000302000683D2100A5002408B2001E
:101590000230B30080312000B22188312030210098
:1015A000B10080312000C62188315E08033C031D54
:1015B0000F2B67082100B2000230B30080312000F9
:1015C000B221883103302100B10080312000C621D2
:1015D000883104302100B10080312000C6218831DB
:1015E0006E082100B2008031200050208831023086
:1015F00067072100A40000302000683D2100A500FD
:101600002408B2000230B30080312000B2218831BA
:1016100020302100B10080312000C62188315E08D1
:10162000043C031D502B67082100B2000230B300B8
:1016300080312000B221883104302100B100803196
:101640002000C621883103302100B1008031200004
:10165000C621883104302100B10080312000C6212C
:1016600088316E082100B20080312000502088317E
:10167000033067072100A40000302000683D2100EE
:10168000A5002408B2000230B30080312000B2214E
:10169000883120302100B10080312000C6218831FE
:1016A0005E08053C031D912B67082100B200023043
:1016B000B30080312000B221883103302100B10015
:1016C00080312000C621883104302100B1008031F2
:1016D0002000C621883103302100B1008031200074
:1016E000C62188316E082100B200803120005020D0
:1016F0008831033067072100A40000302000683DD6
:101700002100A5002408B2000230B300803120007F
:10171000B221883120302100B10080312000C62163
:1017200088315E08063C031DCB2B67082100B20000
:101730000230B30080312000B22188310430210012
:10174000B10080312000C621883104302100B10071
:1017500080312000C62188316E082100B20080311E
:10176000200050208831023067072100A40000309B
:101770002000683D2100A5002408B2000230B3001B
:1017800080312000B221883120302100B100803129
:101790002000C621883105302100B2000130B3009D
:1017A00080312000B221883120302100B100803109
:1017B0002000C621883150302100B1008031200046
:1017C000C62188313D302100B10080312000C62182
:1017D00088310230840062082100A50020006108E1
:1017E0002100A40080312000BC2288311030840008
:1017F00060082100A50020005F082100A4008031BE
:101800002000BC22883102302100B200B3008031B8
:101810002000B221883101302100B1008031200048
:10182000C621883101302100B200B3008031200090
:10183000B221883105302100B10080312000C6215D
:1018400088316D082100B20080312000502088319D
:1018500002302100B200B30080312000B221883173
:1018600002302100B10080312000C62188310130D2
:101870002100B200B30080312000B221883106304F
:101880002100B10080312000C62188316D0821007F
:10189000B20080312000502088316808EA006708D3
:1018A000E90021000D1420000D18F32E1F30230035
:1018B00091000030920080312000002288310530F4
:1018C0002100B2000130B30080312000B221883104
:1018D00020302100B10080312000C62188315030F5
:1018E0002100B10080312000C62188313D30210027
:1018F000B10080312000C6218831023084006208A6
:101900002100A500200061082100A40080312000F2
:10191000BC2288311030840060082100A50020001E
:101920005F082100A40080312000BC2288310230F1
:101930002100B2000130B30080312000B221883193
:101940002100B10180312000C62188310130210001
:10195000B200B30080312000B2218831053021006F
:10196000B10080312000C621883105302100B2004D
:10197000803120005020883102302100B200013037
:10198000B30080312000B22188312100B1018031C3
:101990002000C621883101302100B200B30080311F
:1019A0002000B221883106302100B10080312000B2
:1019B000C621883105302100B2008031200050203E
:1019C000883104306702F7000030683BFA0077087E
:1019D0002100A2008D1122008D1505302100B200DA
:1019E000803120005020883121008D1122008D117E
:1019F000013020006902E70000306A3BE800EA1B82
:101A0000EA2EEA08031D0C2D690821002202031C9E
:101A10000B2D2000EA2E2000E0016B08DF00EB0A0E
:101A200005302100B2000130B30080312000B22126
:101A3000883120302100B10080312000C62188315A
:101A400050302100B10080312000C62188313D3066
:101A50002100B10080312000C6218831023084008D
:101A600062082100A500200061082100A400803147
:101A70002000BC2288311030840060082100A500BD
:101A800020005F082100A40080312000BC228831A2
:101A9000DE08031D7A2D69082100B2000230B30070
:101AA00080312000B221883104302100B100803122
:101AB0002000C6218831013069072100A4000030D0
:101AC00020006A3D2100A5002408B2000230B300C6
:101AD00080312000B221883120302100B1008031D6
:101AE0002000C62188316C082100B200803120001E
:101AF000502088315E0BAB2D69082100B200023006
:101B0000B30080312000B221883103302100B100C0
:101B100080312000C6218831013069072100A400EE
:101B2000003020006A3D2100A5002408B2000230E8
:101B3000B30080312000B221883120302100B10073
:101B400080312000C62188316C082100B20080312C
:101B50002000502088315E08023C031DE52D6908F5
:101B60002100B2000230B30080312000B221883160
:101B700004302100B10080312000C62188310330BB
:101B80002100B10080312000C62188310230690770
:101B90002100A400003020006A3D2100A500240897
:101BA000B2000230B30080312000B22188312030F1
:101BB0002100B10080312000C62188316C0821004D
:101BC000B20080312000502088315E08033C031DA4
:101BD0001F2E69082100B2000230B30080312000BE
:101BE000B221883103302100B10080312000C621AC
:101BF000883104302100B10080312000C6218831B5
:101C0000023069072100A400003020006A3D210055
:101C1000A5002408B2000230B30080312000B221B8
:101C2000883120302100B10080312000C621883168
:101C30006C082100B20080312000502088315E08FD
:101C4000043C031D602E69082100B2000230B3007D
:101C500080312000B221883104302100B100803170
:101C60002000C621883103302100B10080312000DE
:101C7000C621883104302100B10080312000C62106
:101C80008831033069072100A400003020006A3D3C
:101C90002100A5002408B2000230B30080312000EA
:101CA000B221883120302100B10080312000C621CE
:101CB00088316C082100B20080312000502088312A
:101CC0005E08053C031DA12E69082100B200023008
:101CD000B30080312000B221883103302100B100EF
:101CE00080312000C621883104302100B1008031CC
:101CF0002000C621883103302100B100803120004E
:101D0000C6218831033069072100A400003020007B
:101D10006A3D2100A5002408B2000230B3008031E2
:101D20002000B221883120302100B1008031200014
:101D3000C62188316C082100B2008031200050207B
:101D400088315E08063C031DDB2E69082100B200C5
:101D50000230B30080312000B221883104302100EC
:101D6000B10080312000C621883104302100B1004B
:101D700080312000C6218831023069072100A4008B
:101D8000003020006A3D2100A5002408B200023086
:101D9000B30080312000B221883120302100B10011
:101DA00080312000C62188316C082100B2008031CA
:101DB0002000502088316B08083C0318E42EE10A0B
:101DC0000319E20AEB01E52EEB0A69080319EA039D
:101DD000E903FF2C20302300910000309200803175
:101DE0002000002288316A08E8006908E700E0085E
:101DF000031DFE2E5F08083C0318042FE10A031997
:101E0000E20AE001DF01072FDF0A0319E00A5F0899
:101E1000EB0067080319E803E70303288031352D39
:020000040001F9
:04000E00E13FFF1FB0
:00000001FF
;PIC16F1937
;CRC=34A3  CREATED="10-jun.-21 16:29"
